:100DE20041542B43574A41503D5849414F4348557E
:100DF2004E30322C333131383030333136370D0A00
:100E02000041542B494F544346473D38373931321C
:100E1200353832322C3438363431332C30373133A2
:100E22000D0A0041542B494F5453454E443D302C3A
:100E3200646174612C3130300D0A0041542B494FEA
:100E42005453454E443D302C646174612C252E313F
:040E5200660D0A001F
:100E56006024000000000000000000000000000008
:100E6600000000000000000000000000000000007C
:0E0E76000000000000000000010C00010B0055
:100C2800120FE67552007551C2755001754F007F5D
:100C38007C7EF27D307C41120D667FE87E031210C7
:100C48005A7BFF7A0D79E27D20120F61AF0CEF33EA
:100C580095E0FEEF64014E70F37BFF7A0E79037D19
:100C680021120F61AF0BEF3395E0FEEF64014E7078
:100C7800F37BFF7A0E79257D17120F617FE87E03DB
:100C880012105A120EF38E458F46AC45AD46EC1243
:100C980002C9E4FBFA7980783D12011E8F4A8E4919
:100CA8008D488C47754EFF754F0E75503D8F548E8D
:100CB800538D528C517B017A00790012073A7B01DF
:100CC8007A0079007D24120F617FD07E0712105AB6
:020CD80080B1E9
:100E84000222258020202400000000000000000031
:100E9400000000000000000000000000000000004E
:0A0EA40000000000000000014400FF
:100FBE00759850758920AE22AF23AB07AA06E4F9C7
:100FCE00F87F807E70FDFC120EAF1205CC8F8B8FDA
:080FDE008DD28ED2ACD2AF22FD
:080D66008F4E8E4D8D4C8C4B1D
:100D6E00758920E47F20FEFDFCAB52AA51A950A844
:100D7E004F12057DEC1202C4C004C005C006C007A8
:100D8E007F007E247D747C49AB4EAA4DA94CA84BA6
:100D9E0012011ED003D002D001D000120227A804E7
:100DAE00A905AA06AB07E4FFFE7D807C4712002949
:100DBE00120302AD07AC06AF04AE0575985C75C89C
:100DCE00308FCB8ECA8FCD8ECCD2CAD2ADD2AFD20F
:030DDE00ACD2BCD8
:010DE10022EF
:0E107500C2ACC2998F993099FDC299D2AC22BB
:101035008B088A09890AAB08AA09A90A120525603D
:1010450013050AE50A7002050914F9120525FF12B0
:05105500107580E2228D
:10000300E4F5508F99209914C3E550946474809457
:0E00130080500905507F0A12108380E9C299BF
:0100210022BC
:080F61008B4B8A4C894D8D4E2B
:100F6900E4F54FE54FC3954E501CAB4BAA4CA94D28
:100F7900120525FF1200037401254DF54DE4354C8A
:060F8900F54C054F80DD70
:010F8F00223F
:03002300020B4D80
:100B4D00C0E0C0D075D000C000C007209803020CD3
:100B5D001AC29874242544F8A69905447420254496
:100B6D00F8E6FF644C701F74212544F8E6B4451671
:100B7D0074222544F8E6B4440D74232544F8E6B4F4
:100B8D003004C2A08076EF644C701F74212544F8A8
:100B9D00E6B4451674222544F8E6B4440D742325B5
:100BAD0044F8E6B43104D2A0805274202544F8E60E
:100BBD006454702074212544F8E6B420177422255E
:100BCD0044F8E6B4490E74232544F8E6B45005758F
:100BDD000C01802874202544F8E66463702174218B
:100BED002544F8E6B4741874222544F8E6B43A0F97
:100BFD0074232544F8E6B43006750B01754400D313
:100C0D00E544941C7480948040037544003099022F
:0B0C1D00C299D007D000D0D0D0E03248
:03108300DFFE226B
:10105A00AD07AC06ED1DAE0470011C4E600C7FF5A9
:0B106A001210837FF512108380EA2231
:100FE600C200D2B77F05121083C2B77FC812108322
:100FF6007FC8121083D2B77F32121083A2B7920035
:071006007F19121083A20004
:01100D0022C0
:100F9000E4F54CF54D754C08D3E54C940074809401
:100FA000804018C2B7E54D13F54DD2B730B70343B3
:0D0FB0004D807F19121083154C80DDAF4D70
:010FBD002211
:020F31008F4CE3
:100F3300E4F54D754D08D3E54D94007480948040DD
:100F430018C2B7E54C1392B77F19121083D2B7E5D5
:0E0F53004CC313F54C154D80DD7F1902108341
:100EF300E4F54BFFFEFDFC120FE67FCC120F317FB2
:100F030044120F317F0A7E0012105A120FE67FCC73
:100F1300120F317FBE120F31120F908F4B120F90B1
:0D0F2300EF7F00FEEF254BFDE43EFEAF0525
:010F3000229E
:1000260002036EE86480F8E933E83360110460F097
:10003600ED33EC337009E8FCE9FDEAFEEBFF220440
:1000460060DED3EB9FEA9EE99DE8C2E78CF0C2F73B
:1000560095F0400CE8CCF8E9CDF9EACEFAEBCFFB07
:1000660012033985D0F05804700320D5B3E8047024
:10007600075002B2D502037892D5EC0460F7E4CCBF
:10008600C0E0C398F8603B94186008400DD0E0FBD0
:10009600020350E4FBFAC9FC8028E830E406E4C910
:1000A600FBE4CAFCE830E305E4C9CACBFCE8540724
:1000B6006010F8C3E913F9EA13FAEB13FBEC13FC2F
:1000C600D8F130F52FC3E49CFCEF9BFFEE9AFEEDD2
:1000D60099FDD0E0FBEF4E4D4C701222DB0302037C
:1000E60075EC2CFCEF33FFEE33FEED33FDED30E720
:1000F600EB020350EF2BFFEE3AFEED39FDD0E0FBAD
:1001060050130BBB0003020378ED13FDEE13FEEF55
:0801160013FFEC13FC0203507F
:10011E00EC4D6011E8497017ED33EC3304600DE4DB
:10012E00FCFFFEFD22E933E8330470F802036E1281
:10013E00033958046009E4CC248150062850090282
:10014E000378284003020375C0E0EB4A7044B9807F
:10015E0006D0E0FB020364EF4E701CBD8008EBFF7F
:10016E00EAFEE9FD80EBE98DF0A4FEE5F002020760
:10017E00E9CDF9EAFEEBFFEF89F0A4FCE5F0CE89BC
:10018E00F0A42EFFE435F0CD89F0A42DFEE435F079
:10019E008067EF4E7005BD80D780C3EF8BF0A4ACA7
:1001AE00F0EE8BF0A42CFCE435F0F8EF8AF0A42CE2
:1001BE00E5F038FCE433CB8DF0A42CFCE5F03BF8F5
:1001CE00EE8AF0A42CFCE5F038F8E433CF89F0A4E5
:1001DE002CFCE5F038CF3400CE89F0A42FFFE5F0EB
:1001EE003EFEE433C98DF0A42EFEE5F039CD8AF043
:1001FE00A42FFFE5F03EFEE43DFD33D0E0FB5007BB
:10020E000BBB000F020378EC2CFCEF33FFEE33FE3A
:06021E00ED33FD02035068
:10022400020378EC5D046005E85904700302036E70
:10023400120339580460F6EC4860F2EC7004FDFED9
:10024400FF22C860DB2481C85009C39860025006AD
:100254000203759850CAF582E9294B4A7005AB82AE
:1002640002036475F0007C1A7880C3EF9BEE9AED6C
:1002740099400DC3EF9BFFEE9AFEED99FDE842F025
:10028400DC23ACF0D0E0FFD0E0FED0E0FDAB822078
:10029400E7101BEB60BAEC2CFCEF33FFEE33FEED02
:1002A40033FD020350E803F830E705C0F075F000B1
:1002B400EF2FFFEE33FEED33FD40B830E7C280AAE6
:1002C40075F020800E75F010800575F0087D007EB5
:1002D400007F003392D530D5031205CCEC334010A7
:1002E400EF33FFEE33FEED33FDEC33FCD5F0ED22BE
:0E02F400E5F0247EA2D513CC92E7CDCEFF22FA
:10030200EDD2E7CD33EC3392D524814006E4FFFEF3
:10031200FDFC22FCE4CFCECDCC24E0501174FF8052
:10032200EDC3CC13CCCD13CDCE13CECF13CF0470EF
:07033200F030D5DE0205CC1E
:1006DE00E562244EF8E6056222784B300702784E2A
:1006EE00E475F0011205DA0205252000EB7F2ED20B
:1006FE00008018EF540F2490D43440D4FF30040BF4
:10070E00EF24BFB41A0050032461FFE563600215A5
:10071E00630566E5667002056530070D784BE47576
:10072E00F0011205DAEF02056B02100E7403D20708
:10073E008003E4C207F5628B4B8A4C894DE4F56366
:10074E00F565F566E56360077F2012071980F5757C
:10075E0064FFC201C200C202C203C205C206C208C1
:10076E001206E7FF700D3007057F0012072AAF66ED
:10077E00AE6522B4255FC2D5C2041206E7FF24D0AF
:10078E00B40A00501A75F00A786330D50508B6FF22
:10079E000106C6A426F620D5047002D20380D92401
:1007AE00CFB41A00EF5004C2E5D204020A17D201E8
:1007BE0080C6D20080C0D20280BCD2D580BAD2050B
:1007CE0080B47F201207192002077401B563004020
:1007DE00F11206DEFF120719020752D208D2068066
:1007EE00951206DEFB1206DEFA1206DEF94A4B7091
:1007FE0006790E7A0B7BFF20022EE563602A7E00BF
:10080E008E8275830012053E60060EEE656470F0F2
:10081E00C2D5EBC0E0EAC0E0E9C0E0EE120A77D044
:10082E00E0F9D0E0FAD0E0FB120525FF60AAEBC09C
:10083E00E0EAC0E0E9C0E0120719D0E02401F9D0E7
:10084E00E03400FAD0E0FBE5640460DCD564D980C6
:10085E0087D20280A2120A5A60F7E5647001041270
:10086E000383A964600DE564600914F564120B013D
:10087E00EF60F3EA30E702F404C3995077EAF42507
:10088E00640430E701E404F564800D120A5A60C175
:10089E00EA05642564120383EA7861F630E701E421
:1008AE00256404D5640420050114120A77E4C0E01F
:1008BE00120B017861E6601320E70714F6120701A8
:1008CE00802204F6D0E014C0E07F00120701E56438
:1008DE0060071206F81564800B3005031206F8D077
:1008EE00E0020752D0E00480C5120A5A60A0E56407
:1008FE00041203837861EAF6E564200502600104C0
:05090E002404120A7729
:1009130074FF04C0E0120B01120701E56420050215
:1009230060031206F8D0E0B564E87F4512070B7840
:1009330061E67F2B30E7047F2DF404C0E012071932
:10094300D0E075F00A84C0F0120702D0E01207026B
:10095300020752791080027908C206C2088008D2C1
:10096300D5790A8004790AC2D5E564047002F56476
:10097300E4FAFDFEFF1206DEFC7B082001131206DB
:10098300DEFD7B1030000A1206DEFE1206DEFF7B60
:1009930020EC3382D592D55013C3E43000069FFF79
:1009A300E49EFEE42001039DFDE49CFCE4CBF8C23D
:1009B30001EC700CCFCECDCCE824F8F870F380179F
:1009C300C3EF33FFEE33FEED33FDEC33FCEB33FBD0
:1009D300994002FB0FD8E9EB300105F8D0E0C44899
:1009E300B201C0E00AEC4D4E4F78207B0070C2EAA2
:1009F300B5640040BCC0E0120A79D0F0D0E0200119
:100A030004C4C0E0C4B201C0F0120702D0F0D5F0B4
:100A1300EB0207521205EA07EF5309565807C04C79
:100A230007BC42095A4F09624409624907D5430981
:100A3300685508994608F7450863470B2E5007C4C5
:100A43002D07C82E07EB2B07CC2307E9200B172A0A
:100A5300078448000007E3E564B4FF0375640612E6
:100A630006DEFC1206DEFD1206DEFE1206DEFF784F
:100A73005A0203B2790AA2D5200314300509B9102A
:100A8300020404B9080104A2D5200602500104207F
:100A930002689202B563005034C0E07F203003192E
:100AA3007F30A20272067205500F120AD0C202C230
:100AB30006C205C2087F30800F300503E9C0E0128B
:100AC3000719300503D0E0F9D0E0B563CC30051742
:100AD3007F30B9100C1207197F583004077F7880D4
:100AE30003B908031207193002057F2D0207197F86
:100AF300202008F87F2B2006F322920280CF7F006C
:100B0300B407005005245AF8E6FF22286E756C6C72
:100B13002900D2011206DE3001F8C201786330D514
:100B23000108F60207842D504349581206DE2403B8
:100B3300B405004001E4900B299312070A743A129A
:0A0B4300070AD20375630402095685
:10033900E9D2E7C933E833F892D5EDD2E7CD33EC0A
:0703490033FC5002B2D52283
:10035000EC30E7100FBF000C0EBE00080DBD00040E
:100360000BEB6014A2D5EB13FCED92E7FD2274FFBA
:10037000FCFDFEFF22E480F8A2D574FF13FC7D8013
:03038000E480EF27
:10038300F920E72824F950037907E4F42402FB1841
:10039300DBFDE624FB5014E9600DE4F618E604F6F1
:0F03A300B40A08E4F6D9F57401F60A22C2D5228D
:1003B200ED33EC3392D5FA602AB4FF33EDC2E77B1A
:1003C200FF60067A0379D7E4227A0379E020D50424
:1003D2007A0379DB224E614E002B494E46002D49AD
:1003E2004E4600E47A08F608DAFC7B00740722E83D
:1003F200C0E0ECC0E0EDC0E0EEC0E0EFC0E0EA75C6
:10040200F010A4CAABF075F04DA42BFBE435F0FC60
:10041200EA2410FAEB34C5FBEC34D9FCEDC2E7FF59
:1004220075F056A4F42411C5F0F434C58FF0A42A53
:10043200E5F03BE43CF620E7141204E5D0E0FFD0FF
:10044200E0FED0E0FDD0E0FC1202278014F404129A
:1004520004E5D0E0FFD0E0FED0E0FDD0E0FC1201E8
:100462001ED0E0F8E6FAEDD2E7CD33EC332482FB7E
:10047200E4C3CF33CFCE33CECD33CD33DBF37B07E3
:1004820075F00A846004F6081B0AE5F0F6088FF09E
:10049200740AA4FFACF08EF0740AA42CFEACF050E7
:1004A200010C8DF0740AA42CFDE435F0F608DBDEB5
:0304B200740722AA
:1004B5003F8000004120000042C80000447A00004F
:1004C500461C400047C35000497424004B189680D1
:1004D5004CBEBC205A0E1BCA6753C21C749DC5AEC8
:1004E500FB60065407601C2323120513EB54386088
:1004F500091204FF12050E12011EECF8EDF9EEFAD1
:10050500EFCB22EB12050E80F1543803241C900426
:10051500B5FE93FC0EEE93FD0EEE930ECE93FF22E9
:03000000020CDA15
:0C0CDA00787FE4F6D8FD758166020D21DC
:10052500BB010689828A83E0225002E722BBFE02D4
:09053500E32289828A83E4932207
:10053E00BB010CE58229F582E5833AF583E0225072
:10054E0006E92582F8E622BBFE06E92582F8E222BC
:0D055E00E58229F582E5833AF583E49322D6
:10056B00BB010689828A83F0225002F722BBFE016F
:02057B00F32269
:10057D00E88FF0A4CC8BF0A42CFCE98EF0A42CFC1D
:10058D008AF0EDA42CFCEA8EF0A4CDA8F08BF0A49B
:10059D002DCC3825F0FDE98FF0A42CCD35F0FCEBFA
:1005AD008EF0A4FEA9F0EB8FF0A4CFC5F02ECD39BF
:0F05BD00FEE43CFCEAA42DCE35F0FDE43CFC222C
:100EAF00C2D5E830E70FB2D5E4C39BFBE49AFAE46E
:100EBF0099F9E498F8EC30E717B2D5120EE512065F
:100ECF004CE4C39BFBE49AFAE499F9E498F88003A5
:100EDF0012064C30D50DE4C39FFFE49EFEE49DFD4A
:040EEF00E49CFC2261
:0E05CC00C3E49FFFE49EFEE49DFDE49CFC2240
:1005DA00FAE6FB0808E6F925F0F618E6CA3AF62222
:1005EA00D083D082F8E4937012740193700DA3A3A0
:1005FA0093F8740193F5828883E4737402936860B4
:06060A00EFA3A3A380DFB3
:10100E00EFB40A07740D121019740A309811A899CA
:10101E00B8130CC2983098FDA899C298B811F63042
:07102E0099FDC299F599221A
:100CE600020C28E493A3F8E493A34003F68001F2F0
:100CF60008DFF48029E493A3F85407240CC8C3330F
:100D0600C4540F4420C8834004F456800146F6DFDD
:100D1600E4800B0102040810204080900E56E47E09
:100D2600019360BCA3FF543F30E509541FFEE493D2
:100D3600A360010ECF54C025E060A840B8E493A399
:100D4600FAE493A3F8E493A3C8C582C8CAC583CAC4
:100D5600F0A3C8C582C8CAC583CADFE9DEE780BE7C
:010EAE000043
:1006100075F008758200EF2FFFEE33FECD33CDCCA1
:1006200033CCC58233C5829BED9AEC99E582984024
:100630000CF582EE9BFEED9AFDEC99FC0FD5F0D601
:10064000E4CEFBE4CDFAE4CCF9A88222B800C1B92B
:100650000059BA002DEC8BF084CFCECDFCE5F0CB69
:10066000F97818EF2FFFEE33FEED33FDEC33FCEBA2
:1006700033FB10D703994004EB99FB0FD8E5E4F95D
:10068000FA227818EF2FFFEE33FEED33FDEC33FC4A
:10069000C933C910D7059BE99A4007EC9BFCE99A3E
:1006A000F90FD8E0E4C9FAE4CCFB2275F010EF2F83
:1006B000FFEE33FEED33FDCC33CCC833C810D70783
:1006C0009BEC9AE899400AED9BFDEC9AFCE899F8BE
:0E06D0000FD5F0DAE4CDFBE4CCFAE4C8F92251
:00000001FF
